{
    "_format": "hh-sol-artifact-1",
    "contractName": "Cyberpunk",
    "sourceName": "contracts/Cyberpunk.sol",
    "abi": [
        {
            "inputs": [],
            "stateMutability": "payable",
            "type": "constructor"
        },
        {
            "anonymous": false,
            "inputs": [
                {
                    "indexed": true,
                    "internalType": "address",
                    "name": "owner",
                    "type": "address"
                },
                {
                    "indexed": true,
                    "internalType": "address",
                    "name": "approved",
                    "type": "address"
                },
                {
                    "indexed": true,
                    "internalType": "uint256",
                    "name": "tokenId",
                    "type": "uint256"
                }
            ],
            "name": "Approval",
            "type": "event"
        },
        {
            "anonymous": false,
            "inputs": [
                {
                    "indexed": true,
                    "internalType": "address",
                    "name": "owner",
                    "type": "address"
                },
                {
                    "indexed": true,
                    "internalType": "address",
                    "name": "operator",
                    "type": "address"
                },
                {
                    "indexed": false,
                    "internalType": "bool",
                    "name": "approved",
                    "type": "bool"
                }
            ],
            "name": "ApprovalForAll",
            "type": "event"
        },
        {
            "anonymous": false,
            "inputs": [
                {
                    "indexed": true,
                    "internalType": "address",
                    "name": "previousOwner",
                    "type": "address"
                },
                {
                    "indexed": true,
                    "internalType": "address",
                    "name": "newOwner",
                    "type": "address"
                }
            ],
            "name": "OwnershipTransferred",
            "type": "event"
        },
        {
            "anonymous": false,
            "inputs": [
                {
                    "indexed": true,
                    "internalType": "address",
                    "name": "from",
                    "type": "address"
                },
                {
                    "indexed": true,
                    "internalType": "address",
                    "name": "to",
                    "type": "address"
                },
                {
                    "indexed": true,
                    "internalType": "uint256",
                    "name": "tokenId",
                    "type": "uint256"
                }
            ],
            "name": "Transfer",
            "type": "event"
        },
        {
            "inputs": [
                {
                    "internalType": "address",
                    "name": "to",
                    "type": "address"
                },
                {
                    "internalType": "uint256",
                    "name": "tokenId",
                    "type": "uint256"
                }
            ],
            "name": "approve",
            "outputs": [],
            "stateMutability": "nonpayable",
            "type": "function"
        },
        {
            "inputs": [
                {
                    "internalType": "address",
                    "name": "owner",
                    "type": "address"
                }
            ],
            "name": "balanceOf",
            "outputs": [
                {
                    "internalType": "uint256",
                    "name": "",
                    "type": "uint256"
                }
            ],
            "stateMutability": "view",
            "type": "function"
        },
        {
            "inputs": [
                {
                    "internalType": "uint256",
                    "name": "tokenId",
                    "type": "uint256"
                }
            ],
            "name": "getApproved",
            "outputs": [
                {
                    "internalType": "address",
                    "name": "",
                    "type": "address"
                }
            ],
            "stateMutability": "view",
            "type": "function"
        },
        {
            "inputs": [
                {
                    "internalType": "address",
                    "name": "owner",
                    "type": "address"
                },
                {
                    "internalType": "address",
                    "name": "operator",
                    "type": "address"
                }
            ],
            "name": "isApprovedForAll",
            "outputs": [
                {
                    "internalType": "bool",
                    "name": "",
                    "type": "bool"
                }
            ],
            "stateMutability": "view",
            "type": "function"
        },
        {
            "inputs": [],
            "name": "isPublicMintEnabled",
            "outputs": [
                {
                    "internalType": "bool",
                    "name": "",
                    "type": "bool"
                }
            ],
            "stateMutability": "view",
            "type": "function"
        },
        {
            "inputs": [],
            "name": "maxPerwallet",
            "outputs": [
                {
                    "internalType": "uint256",
                    "name": "",
                    "type": "uint256"
                }
            ],
            "stateMutability": "view",
            "type": "function"
        },
        {
            "inputs": [],
            "name": "maxsupply",
            "outputs": [
                {
                    "internalType": "uint256",
                    "name": "",
                    "type": "uint256"
                }
            ],
            "stateMutability": "view",
            "type": "function"
        },
        {
            "inputs": [
                {
                    "internalType": "uint256",
                    "name": "quantity_",
                    "type": "uint256"
                }
            ],
            "name": "mint",
            "outputs": [],
            "stateMutability": "payable",
            "type": "function"
        },
        {
            "inputs": [],
            "name": "mintPrice",
            "outputs": [
                {
                    "internalType": "uint256",
                    "name": "",
                    "type": "uint256"
                }
            ],
            "stateMutability": "view",
            "type": "function"
        },
        {
            "inputs": [],
            "name": "name",
            "outputs": [
                {
                    "internalType": "string",
                    "name": "",
                    "type": "string"
                }
            ],
            "stateMutability": "view",
            "type": "function"
        },
        {
            "inputs": [],
            "name": "owner",
            "outputs": [
                {
                    "internalType": "address",
                    "name": "",
                    "type": "address"
                }
            ],
            "stateMutability": "view",
            "type": "function"
        },
        {
            "inputs": [
                {
                    "internalType": "uint256",
                    "name": "tokenId",
                    "type": "uint256"
                }
            ],
            "name": "ownerOf",
            "outputs": [
                {
                    "internalType": "address",
                    "name": "",
                    "type": "address"
                }
            ],
            "stateMutability": "view",
            "type": "function"
        },
        {
            "inputs": [],
            "name": "renounceOwnership",
            "outputs": [],
            "stateMutability": "nonpayable",
            "type": "function"
        },
        {
            "inputs": [
                {
                    "internalType": "address",
                    "name": "from",
                    "type": "address"
                },
                {
                    "internalType": "address",
                    "name": "to",
                    "type": "address"
                },
                {
                    "internalType": "uint256",
                    "name": "tokenId",
                    "type": "uint256"
                }
            ],
            "name": "safeTransferFrom",
            "outputs": [],
            "stateMutability": "nonpayable",
            "type": "function"
        },
        {
            "inputs": [
                {
                    "internalType": "address",
                    "name": "from",
                    "type": "address"
                },
                {
                    "internalType": "address",
                    "name": "to",
                    "type": "address"
                },
                {
                    "internalType": "uint256",
                    "name": "tokenId",
                    "type": "uint256"
                },
                {
                    "internalType": "bytes",
                    "name": "data",
                    "type": "bytes"
                }
            ],
            "name": "safeTransferFrom",
            "outputs": [],
            "stateMutability": "nonpayable",
            "type": "function"
        },
        {
            "inputs": [
                {
                    "internalType": "address",
                    "name": "operator",
                    "type": "address"
                },
                {
                    "internalType": "bool",
                    "name": "approved",
                    "type": "bool"
                }
            ],
            "name": "setApprovalForAll",
            "outputs": [],
            "stateMutability": "nonpayable",
            "type": "function"
        },
        {
            "inputs": [
                {
                    "internalType": "string",
                    "name": "baseTokenUri_",
                    "type": "string"
                }
            ],
            "name": "setBaseTokenUri",
            "outputs": [],
            "stateMutability": "nonpayable",
            "type": "function"
        },
        {
            "inputs": [
                {
                    "internalType": "bool",
                    "name": "isPublicMintEnable_",
                    "type": "bool"
                }
            ],
            "name": "setPublicMintEnable",
            "outputs": [],
            "stateMutability": "nonpayable",
            "type": "function"
        },
        {
            "inputs": [
                {
                    "internalType": "bytes4",
                    "name": "interfaceId",
                    "type": "bytes4"
                }
            ],
            "name": "supportsInterface",
            "outputs": [
                {
                    "internalType": "bool",
                    "name": "",
                    "type": "bool"
                }
            ],
            "stateMutability": "view",
            "type": "function"
        },
        {
            "inputs": [],
            "name": "symbol",
            "outputs": [
                {
                    "internalType": "string",
                    "name": "",
                    "type": "string"
                }
            ],
            "stateMutability": "view",
            "type": "function"
        },
        {
            "inputs": [
                {
                    "internalType": "uint256",
                    "name": "tokenId_",
                    "type": "uint256"
                }
            ],
            "name": "tokenURI",
            "outputs": [
                {
                    "internalType": "string",
                    "name": "",
                    "type": "string"
                }
            ],
            "stateMutability": "view",
            "type": "function"
        },
        {
            "inputs": [],
            "name": "totSupply",
            "outputs": [
                {
                    "internalType": "uint256",
                    "name": "",
                    "type": "uint256"
                }
            ],
            "stateMutability": "view",
            "type": "function"
        },
        {
            "inputs": [
                {
                    "internalType": "address",
                    "name": "from",
                    "type": "address"
                },
                {
                    "internalType": "address",
                    "name": "to",
                    "type": "address"
                },
                {
                    "internalType": "uint256",
                    "name": "tokenId",
                    "type": "uint256"
                }
            ],
            "name": "transferFrom",
            "outputs": [],
            "stateMutability": "nonpayable",
            "type": "function"
        },
        {
            "inputs": [
                {
                    "internalType": "address",
                    "name": "newOwner",
                    "type": "address"
                }
            ],
            "name": "transferOwnership",
            "outputs": [],
            "stateMutability": "nonpayable",
            "type": "function"
        },
        {
            "inputs": [
                {
                    "internalType": "address",
                    "name": "",
                    "type": "address"
                }
            ],
            "name": "walletMints",
            "outputs": [
                {
                    "internalType": "uint256",
                    "name": "",
                    "type": "uint256"
                }
            ],
            "stateMutability": "view",
            "type": "function"
        },
        {
            "inputs": [],
            "name": "withDraw",
            "outputs": [
                {
                    "internalType": "address payable",
                    "name": "",
                    "type": "address"
                }
            ],
            "stateMutability": "view",
            "type": "function"
        },
        {
            "inputs": [],
            "name": "withdraw",
            "outputs": [],
            "stateMutability": "nonpayable",
            "type": "function"
        }
    ],
    "bytecode": "0x60806040526040518060400160405280600981526020017f437962657270756e6b00000000000000000000000000000000000000000000008152506040518060400160405280600281526020017f52500000000000000000000000000000000000000000000000000000000000008152508160009081620000819190620004ce565b508060019081620000939190620004ce565b505050620000b6620000aa6200018660201b60201c565b6200018e60201b60201c565b66470de4df82000060078190555060006008819055506103e86009819055506003600a819055506001600b60006101000a81548160ff02191690831515021790555033600d60006101000a81548173ffffffffffffffffffffffffffffffffffffffff021916908373ffffffffffffffffffffffffffffffffffffffff1602179055506040518060400160405280601d81526020017f68747470733a2f2f6578616d706c652e636f6d2f6d657461646174612f000000815250600c90816200017f9190620004ce565b50620005b5565b600033905090565b6000600660009054906101000a900473ffffffffffffffffffffffffffffffffffffffff16905081600660006101000a81548173ffffffffffffffffffffffffffffffffffffffff021916908373ffffffffffffffffffffffffffffffffffffffff1602179055508173ffffffffffffffffffffffffffffffffffffffff168173ffffffffffffffffffffffffffffffffffffffff167f8be0079c531659141344cd1fd0a4f28419497f9722a3daafe3b4186f6b6457e060405160405180910390a35050565b600081519050919050565b7f4e487b7100000000000000000000000000000000000000000000000000000000600052604160045260246000fd5b7f4e487b7100000000000000000000000000000000000000000000000000000000600052602260045260246000fd5b60006002820490506001821680620002d657607f821691505b602082108103620002ec57620002eb6200028e565b5b50919050565b60008190508160005260206000209050919050565b60006020601f8301049050919050565b600082821b905092915050565b600060088302620003567fffffffffffffffffffffffffffffffffffffffffffffffffffffffffffffffff8262000317565b62000362868362000317565b95508019841693508086168417925050509392505050565b6000819050919050565b6000819050919050565b6000620003af620003a9620003a3846200037a565b62000384565b6200037a565b9050919050565b6000819050919050565b620003cb836200038e565b620003e3620003da82620003b6565b84845462000324565b825550505050565b600090565b620003fa620003eb565b62000407818484620003c0565b505050565b5b818110156200042f5762000423600082620003f0565b6001810190506200040d565b5050565b601f8211156200047e576200044881620002f2565b620004538462000307565b8101602085101562000463578190505b6200047b620004728562000307565b8301826200040c565b50505b505050565b600082821c905092915050565b6000620004a36000198460080262000483565b1980831691505092915050565b6000620004be838362000490565b9150826002028217905092915050565b620004d98262000254565b67ffffffffffffffff811115620004f557620004f46200025f565b5b620005018254620002bd565b6200050e82828562000433565b600060209050601f83116001811462000546576000841562000531578287015190505b6200053d8582620004b0565b865550620005ad565b601f1984166200055686620002f2565b60005b82811015620005805784890151825560018201915060208501945060208101905062000559565b86831015620005a057848901516200059c601f89168262000490565b8355505b6001600288020188555050505b505050505050565b61370780620005c56000396000f3fe60806040526004361061019c5760003560e01c8063715018a6116100ec578063a22cb4651161008a578063c87b56dd11610064578063c87b56dd14610581578063e985e9c5146105be578063f0293fd3146105fb578063f2fde38b146106385761019c565b8063a22cb46514610504578063b570207d1461052d578063b88d4fde146105585761019c565b80638da5cb5b116100c65780638da5cb5b1461046957806395652cfa1461049457806395d89b41146104bd578063a0712d68146104e85761019c565b8063715018a6146103fe578063805baf171461041557806381fbf0a51461043e5761019c565b806323b872dd116101595780634b6406d1116101335780634b6406d11461032e5780636352211e146103595780636817c76c1461039657806370a08231146103c15761019c565b806323b872dd146102c55780633ccfd60b146102ee57806342842e0e146103055761019c565b80630116bc2d146101a157806301ffc9a7146101cc57806306fdde0314610209578063081812fc14610234578063095ea7b3146102715780630fdb1c101461029a575b600080fd5b3480156101ad57600080fd5b506101b6610661565b6040516101c39190612082565b60405180910390f35b3480156101d857600080fd5b506101f360048036038101906101ee9190612109565b610674565b6040516102009190612082565b60405180910390f35b34801561021557600080fd5b5061021e610756565b60405161022b91906121c6565b60405180910390f35b34801561024057600080fd5b5061025b6004803603810190610256919061221e565b6107e8565b604051610268919061228c565b60405180910390f35b34801561027d57600080fd5b50610298600480360381019061029391906122d3565b61082e565b005b3480156102a657600080fd5b506102af610945565b6040516102bc9190612334565b60405180910390f35b3480156102d157600080fd5b506102ec60048036038101906102e7919061234f565b61096b565b005b3480156102fa57600080fd5b506103036109cb565b005b34801561031157600080fd5b5061032c6004803603810190610327919061234f565b610ae7565b005b34801561033a57600080fd5b50610343610b07565b60405161035091906123b1565b60405180910390f35b34801561036557600080fd5b50610380600480360381019061037b919061221e565b610b0d565b60405161038d919061228c565b60405180910390f35b3480156103a257600080fd5b506103ab610b93565b6040516103b891906123b1565b60405180910390f35b3480156103cd57600080fd5b506103e860048036038101906103e391906123cc565b610b99565b6040516103f591906123b1565b60405180910390f35b34801561040a57600080fd5b50610413610c50565b005b34801561042157600080fd5b5061043c60048036038101906104379190612425565b610c64565b005b34801561044a57600080fd5b50610453610c89565b60405161046091906123b1565b60405180910390f35b34801561047557600080fd5b5061047e610c8f565b60405161048b919061228c565b60405180910390f35b3480156104a057600080fd5b506104bb60048036038101906104b691906124b7565b610cb9565b005b3480156104c957600080fd5b506104d2610cd7565b6040516104df91906121c6565b60405180910390f35b61050260048036038101906104fd919061221e565b610d69565b005b34801561051057600080fd5b5061052b60048036038101906105269190612504565b610f43565b005b34801561053957600080fd5b50610542610f59565b60405161054f91906123b1565b60405180910390f35b34801561056457600080fd5b5061057f600480360381019061057a9190612674565b610f5f565b005b34801561058d57600080fd5b506105a860048036038101906105a3919061221e565b610fc1565b6040516105b591906121c6565b60405180910390f35b3480156105ca57600080fd5b506105e560048036038101906105e091906126f7565b61103d565b6040516105f29190612082565b60405180910390f35b34801561060757600080fd5b50610622600480360381019061061d91906123cc565b6110d1565b60405161062f91906123b1565b60405180910390f35b34801561064457600080fd5b5061065f600480360381019061065a91906123cc565b6110e9565b005b600b60009054906101000a900460ff1681565b60007f80ac58cd000000000000000000000000000000000000000000000000000000007bffffffffffffffffffffffffffffffffffffffffffffffffffffffff1916827bffffffffffffffffffffffffffffffffffffffffffffffffffffffff1916148061073f57507f5b5e139f000000000000000000000000000000000000000000000000000000007bffffffffffffffffffffffffffffffffffffffffffffffffffffffff1916827bffffffffffffffffffffffffffffffffffffffffffffffffffffffff1916145b8061074f575061074e8261116c565b5b9050919050565b60606000805461076590612766565b80601f016020809104026020016040519081016040528092919081815260200182805461079190612766565b80156107de5780601f106107b3576101008083540402835291602001916107de565b820191906000526020600020905b8154815290600101906020018083116107c157829003601f168201915b5050505050905090565b60006107f3826111d6565b6004600083815260200190815260200160002060009054906101000a900473ffffffffffffffffffffffffffffffffffffffff169050919050565b600061083982610b0d565b90508073ffffffffffffffffffffffffffffffffffffffff168373ffffffffffffffffffffffffffffffffffffffff16036108a9576040517f08c379a00000000000000000000000000000000000000000000000000000000081526004016108a090612809565b60405180910390fd5b8073ffffffffffffffffffffffffffffffffffffffff166108c8611221565b73ffffffffffffffffffffffffffffffffffffffff1614806108f757506108f6816108f1611221565b61103d565b5b610936576040517f08c379a000000000000000000000000000000000000000000000000000000000815260040161092d9061289b565b60405180910390fd5b6109408383611229565b505050565b600d60009054906101000a900473ffffffffffffffffffffffffffffffffffffffff1681565b61097c610976611221565b826112e2565b6109bb576040517f08c379a00000000000000000000000000000000000000000000000000000000081526004016109b29061292d565b60405180910390fd5b6109c6838383611377565b505050565b6109d3611670565b60004711610a16576040517f08c379a0000000000000000000000000000000000000000000000000000000008152600401610a0d90612999565b60405180910390fd5b6000600d60009054906101000a900473ffffffffffffffffffffffffffffffffffffffff1673ffffffffffffffffffffffffffffffffffffffff1647604051610a5e906129ea565b60006040518083038185875af1925050503d8060008114610a9b576040519150601f19603f3d011682016040523d82523d6000602084013e610aa0565b606091505b5050905080610ae4576040517f08c379a0000000000000000000000000000000000000000000000000000000008152600401610adb90612a4b565b60405180910390fd5b50565b610b0283838360405180602001604052806000815250610f5f565b505050565b60095481565b600080610b19836116ee565b9050600073ffffffffffffffffffffffffffffffffffffffff168173ffffffffffffffffffffffffffffffffffffffff1603610b8a576040517f08c379a0000000000000000000000000000000000000000000000000000000008152600401610b8190612ab7565b60405180910390fd5b80915050919050565b60075481565b60008073ffffffffffffffffffffffffffffffffffffffff168273ffffffffffffffffffffffffffffffffffffffff1603610c09576040517f08c379a0000000000000000000000000000000000000000000000000000000008152600401610c0090612b49565b60405180910390fd5b600360008373ffffffffffffffffffffffffffffffffffffffff1673ffffffffffffffffffffffffffffffffffffffff168152602001908152602001600020549050919050565b610c58611670565b610c62600061172b565b565b610c6c611670565b80600b60006101000a81548160ff02191690831515021790555050565b60085481565b6000600660009054906101000a900473ffffffffffffffffffffffffffffffffffffffff16905090565b610cc1611670565b8181600c9182610cd2929190612d20565b505050565b606060018054610ce690612766565b80601f0160208091040260200160405190810160405280929190818152602001828054610d1290612766565b8015610d5f5780601f10610d3457610100808354040283529160200191610d5f565b820191906000526020600020905b815481529060010190602001808311610d4257829003601f168201915b5050505050905090565b600b60009054906101000a900460ff16610db8576040517f08c379a0000000000000000000000000000000000000000000000000000000008152600401610daf90612e3c565b60405180910390fd5b60075481610dc69190612e8b565b3414610e07576040517f08c379a0000000000000000000000000000000000000000000000000000000008152600401610dfe90612f19565b60405180910390fd5b600a5481600e60003373ffffffffffffffffffffffffffffffffffffffff1673ffffffffffffffffffffffffffffffffffffffff16815260200190815260200160002054610e559190612f39565b1115610e96576040517f08c379a0000000000000000000000000000000000000000000000000000000008152600401610e8d90612fb9565b60405180910390fd5b60005b81811015610f3f5760006001600854610eb29190612f39565b905060086000815480929190610ec790612fd9565b9190505550610ed633826117f1565b600e60003373ffffffffffffffffffffffffffffffffffffffff1673ffffffffffffffffffffffffffffffffffffffff1681526020019081526020016000206000815480929190610f2690612fd9565b9190505550508080610f3790612fd9565b915050610e99565b5050565b610f55610f4e611221565b838361180f565b5050565b600a5481565b610f70610f6a611221565b836112e2565b610faf576040517f08c379a0000000000000000000000000000000000000000000000000000000008152600401610fa69061292d565b60405180910390fd5b610fbb8484848461197b565b50505050565b6060610fcc826119d7565b61100b576040517f08c379a00000000000000000000000000000000000000000000000000000000081526004016110029061306d565b60405180910390fd5b600c61101683611a18565b604051602001611027929190613198565b6040516020818303038152906040529050919050565b6000600560008473ffffffffffffffffffffffffffffffffffffffff1673ffffffffffffffffffffffffffffffffffffffff16815260200190815260200160002060008373ffffffffffffffffffffffffffffffffffffffff1673ffffffffffffffffffffffffffffffffffffffff16815260200190815260200160002060009054906101000a900460ff16905092915050565b600e6020528060005260406000206000915090505481565b6110f1611670565b600073ffffffffffffffffffffffffffffffffffffffff168173ffffffffffffffffffffffffffffffffffffffff1603611160576040517f08c379a000000000000000000000000000000000000000000000000000000000815260040161115790613239565b60405180910390fd5b6111698161172b565b50565b60007f01ffc9a7000000000000000000000000000000000000000000000000000000007bffffffffffffffffffffffffffffffffffffffffffffffffffffffff1916827bffffffffffffffffffffffffffffffffffffffffffffffffffffffff1916149050919050565b6111df816119d7565b61121e576040517f08c379a000000000000000000000000000000000000000000000000000000000815260040161121590612ab7565b60405180910390fd5b50565b600033905090565b816004600083815260200190815260200160002060006101000a81548173ffffffffffffffffffffffffffffffffffffffff021916908373ffffffffffffffffffffffffffffffffffffffff160217905550808273ffffffffffffffffffffffffffffffffffffffff1661129c83610b0d565b73ffffffffffffffffffffffffffffffffffffffff167f8c5be1e5ebec7d5bd14f71427d1e84f3dd0314c0f7b2291e5b200ac8c7c3b92560405160405180910390a45050565b6000806112ee83610b0d565b90508073ffffffffffffffffffffffffffffffffffffffff168473ffffffffffffffffffffffffffffffffffffffff161480611330575061132f818561103d565b5b8061136e57508373ffffffffffffffffffffffffffffffffffffffff16611356846107e8565b73ffffffffffffffffffffffffffffffffffffffff16145b91505092915050565b8273ffffffffffffffffffffffffffffffffffffffff1661139782610b0d565b73ffffffffffffffffffffffffffffffffffffffff16146113ed576040517f08c379a00000000000000000000000000000000000000000000000000000000081526004016113e4906132cb565b60405180910390fd5b600073ffffffffffffffffffffffffffffffffffffffff168273ffffffffffffffffffffffffffffffffffffffff160361145c576040517f08c379a00000000000000000000000000000000000000000000000000000000081526004016114539061335d565b60405180910390fd5b6114698383836001611ae6565b8273ffffffffffffffffffffffffffffffffffffffff1661148982610b0d565b73ffffffffffffffffffffffffffffffffffffffff16146114df576040517f08c379a00000000000000000000000000000000000000000000000000000000081526004016114d6906132cb565b60405180910390fd5b6004600082815260200190815260200160002060006101000a81549073ffffffffffffffffffffffffffffffffffffffff02191690556001600360008573ffffffffffffffffffffffffffffffffffffffff1673ffffffffffffffffffffffffffffffffffffffff168152602001908152602001600020600082825403925050819055506001600360008473ffffffffffffffffffffffffffffffffffffffff1673ffffffffffffffffffffffffffffffffffffffff16815260200190815260200160002060008282540192505081905550816002600083815260200190815260200160002060006101000a81548173ffffffffffffffffffffffffffffffffffffffff021916908373ffffffffffffffffffffffffffffffffffffffff160217905550808273ffffffffffffffffffffffffffffffffffffffff168473ffffffffffffffffffffffffffffffffffffffff167fddf252ad1be2c89b69c2b068fc378daa952ba7f163c4a11628f55a4df523b3ef60405160405180910390a461166b8383836001611aec565b505050565b611678611221565b73ffffffffffffffffffffffffffffffffffffffff16611696610c8f565b73ffffffffffffffffffffffffffffffffffffffff16146116ec576040517f08c379a00000000000000000000000000000000000000000000000000000000081526004016116e3906133c9565b60405180910390fd5b565b60006002600083815260200190815260200160002060009054906101000a900473ffffffffffffffffffffffffffffffffffffffff169050919050565b6000600660009054906101000a900473ffffffffffffffffffffffffffffffffffffffff16905081600660006101000a81548173ffffffffffffffffffffffffffffffffffffffff021916908373ffffffffffffffffffffffffffffffffffffffff1602179055508173ffffffffffffffffffffffffffffffffffffffff168173ffffffffffffffffffffffffffffffffffffffff167f8be0079c531659141344cd1fd0a4f28419497f9722a3daafe3b4186f6b6457e060405160405180910390a35050565b61180b828260405180602001604052806000815250611af2565b5050565b8173ffffffffffffffffffffffffffffffffffffffff168373ffffffffffffffffffffffffffffffffffffffff160361187d576040517f08c379a000000000000000000000000000000000000000000000000000000000815260040161187490613435565b60405180910390fd5b80600560008573ffffffffffffffffffffffffffffffffffffffff1673ffffffffffffffffffffffffffffffffffffffff16815260200190815260200160002060008473ffffffffffffffffffffffffffffffffffffffff1673ffffffffffffffffffffffffffffffffffffffff16815260200190815260200160002060006101000a81548160ff0219169083151502179055508173ffffffffffffffffffffffffffffffffffffffff168373ffffffffffffffffffffffffffffffffffffffff167f17307eab39ab6107e8899845ad3d59bd9653f200f220920489ca2b5937696c318360405161196e9190612082565b60405180910390a3505050565b611986848484611377565b61199284848484611b4d565b6119d1576040517f08c379a00000000000000000000000000000000000000000000000000000000081526004016119c8906134c7565b60405180910390fd5b50505050565b60008073ffffffffffffffffffffffffffffffffffffffff166119f9836116ee565b73ffffffffffffffffffffffffffffffffffffffff1614159050919050565b606060006001611a2784611cd4565b01905060008167ffffffffffffffff811115611a4657611a45612549565b5b6040519080825280601f01601f191660200182016040528015611a785781602001600182028036833780820191505090505b509050600082602001820190505b600115611adb578080600190039150507f3031323334353637383961626364656600000000000000000000000000000000600a86061a8153600a8581611acf57611ace6134e7565b5b04945060008503611a86575b819350505050919050565b50505050565b50505050565b611afc8383611e27565b611b096000848484611b4d565b611b48576040517f08c379a0000000000000000000000000000000000000000000000000000000008152600401611b3f906134c7565b60405180910390fd5b505050565b6000611b6e8473ffffffffffffffffffffffffffffffffffffffff16612044565b15611cc7578373ffffffffffffffffffffffffffffffffffffffff1663150b7a02611b97611221565b8786866040518563ffffffff1660e01b8152600401611bb9949392919061356b565b6020604051808303816000875af1925050508015611bf557506040513d601f19601f82011682018060405250810190611bf291906135cc565b60015b611c77573d8060008114611c25576040519150601f19603f3d011682016040523d82523d6000602084013e611c2a565b606091505b506000815103611c6f576040517f08c379a0000000000000000000000000000000000000000000000000000000008152600401611c66906134c7565b60405180910390fd5b805181602001fd5b63150b7a0260e01b7bffffffffffffffffffffffffffffffffffffffffffffffffffffffff1916817bffffffffffffffffffffffffffffffffffffffffffffffffffffffff191614915050611ccc565b600190505b949350505050565b600080600090507a184f03e93ff9f4daa797ed6e38ed64bf6a1f0100000000000000008310611d32577a184f03e93ff9f4daa797ed6e38ed64bf6a1f0100000000000000008381611d2857611d276134e7565b5b0492506040810190505b6d04ee2d6d415b85acef81000000008310611d6f576d04ee2d6d415b85acef81000000008381611d6557611d646134e7565b5b0492506020810190505b662386f26fc100008310611d9e57662386f26fc100008381611d9457611d936134e7565b5b0492506010810190505b6305f5e1008310611dc7576305f5e1008381611dbd57611dbc6134e7565b5b0492506008810190505b6127108310611dec576127108381611de257611de16134e7565b5b0492506004810190505b60648310611e0f5760648381611e0557611e046134e7565b5b0492506002810190505b600a8310611e1e576001810190505b80915050919050565b600073ffffffffffffffffffffffffffffffffffffffff168273ffffffffffffffffffffffffffffffffffffffff1603611e96576040517f08c379a0000000000000000000000000000000000000000000000000000000008152600401611e8d90613645565b60405180910390fd5b611e9f816119d7565b15611edf576040517f08c379a0000000000000000000000000000000000000000000000000000000008152600401611ed6906136b1565b60405180910390fd5b611eed600083836001611ae6565b611ef6816119d7565b15611f36576040517f08c379a0000000000000000000000000000000000000000000000000000000008152600401611f2d906136b1565b60405180910390fd5b6001600360008473ffffffffffffffffffffffffffffffffffffffff1673ffffffffffffffffffffffffffffffffffffffff16815260200190815260200160002060008282540192505081905550816002600083815260200190815260200160002060006101000a81548173ffffffffffffffffffffffffffffffffffffffff021916908373ffffffffffffffffffffffffffffffffffffffff160217905550808273ffffffffffffffffffffffffffffffffffffffff16600073ffffffffffffffffffffffffffffffffffffffff167fddf252ad1be2c89b69c2b068fc378daa952ba7f163c4a11628f55a4df523b3ef60405160405180910390a4612040600083836001611aec565b5050565b6000808273ffffffffffffffffffffffffffffffffffffffff163b119050919050565b60008115159050919050565b61207c81612067565b82525050565b60006020820190506120976000830184612073565b92915050565b6000604051905090565b600080fd5b600080fd5b60007fffffffff0000000000000000000000000000000000000000000000000000000082169050919050565b6120e6816120b1565b81146120f157600080fd5b50565b600081359050612103816120dd565b92915050565b60006020828403121561211f5761211e6120a7565b5b600061212d848285016120f4565b91505092915050565b600081519050919050565b600082825260208201905092915050565b60005b83811015612170578082015181840152602081019050612155565b60008484015250505050565b6000601f19601f8301169050919050565b600061219882612136565b6121a28185612141565b93506121b2818560208601612152565b6121bb8161217c565b840191505092915050565b600060208201905081810360008301526121e0818461218d565b905092915050565b6000819050919050565b6121fb816121e8565b811461220657600080fd5b50565b600081359050612218816121f2565b92915050565b600060208284031215612234576122336120a7565b5b600061224284828501612209565b91505092915050565b600073ffffffffffffffffffffffffffffffffffffffff82169050919050565b60006122768261224b565b9050919050565b6122868161226b565b82525050565b60006020820190506122a1600083018461227d565b92915050565b6122b08161226b565b81146122bb57600080fd5b50565b6000813590506122cd816122a7565b92915050565b600080604083850312156122ea576122e96120a7565b5b60006122f8858286016122be565b925050602061230985828601612209565b9150509250929050565b600061231e8261224b565b9050919050565b61232e81612313565b82525050565b60006020820190506123496000830184612325565b92915050565b600080600060608486031215612368576123676120a7565b5b6000612376868287016122be565b9350506020612387868287016122be565b925050604061239886828701612209565b9150509250925092565b6123ab816121e8565b82525050565b60006020820190506123c660008301846123a2565b92915050565b6000602082840312156123e2576123e16120a7565b5b60006123f0848285016122be565b91505092915050565b61240281612067565b811461240d57600080fd5b50565b60008135905061241f816123f9565b92915050565b60006020828403121561243b5761243a6120a7565b5b600061244984828501612410565b91505092915050565b600080fd5b600080fd5b600080fd5b60008083601f84011261247757612476612452565b5b8235905067ffffffffffffffff81111561249457612493612457565b5b6020830191508360018202830111156124b0576124af61245c565b5b9250929050565b600080602083850312156124ce576124cd6120a7565b5b600083013567ffffffffffffffff8111156124ec576124eb6120ac565b5b6124f885828601612461565b92509250509250929050565b6000806040838503121561251b5761251a6120a7565b5b6000612529858286016122be565b925050602061253a85828601612410565b9150509250929050565b600080fd5b7f4e487b7100000000000000000000000000000000000000000000000000000000600052604160045260246000fd5b6125818261217c565b810181811067ffffffffffffffff821117156125a05761259f612549565b5b80604052505050565b60006125b361209d565b90506125bf8282612578565b919050565b600067ffffffffffffffff8211156125df576125de612549565b5b6125e88261217c565b9050602081019050919050565b82818337600083830152505050565b6000612617612612846125c4565b6125a9565b90508281526020810184848401111561263357612632612544565b5b61263e8482856125f5565b509392505050565b600082601f83011261265b5761265a612452565b5b813561266b848260208601612604565b91505092915050565b6000806000806080858703121561268e5761268d6120a7565b5b600061269c878288016122be565b94505060206126ad878288016122be565b93505060406126be87828801612209565b925050606085013567ffffffffffffffff8111156126df576126de6120ac565b5b6126eb87828801612646565b91505092959194509250565b6000806040838503121561270e5761270d6120a7565b5b600061271c858286016122be565b925050602061272d858286016122be565b9150509250929050565b7f4e487b7100000000000000000000000000000000000000000000000000000000600052602260045260246000fd5b6000600282049050600182168061277e57607f821691505b60208210810361279157612790612737565b5b50919050565b7f4552433732313a20617070726f76616c20746f2063757272656e74206f776e6560008201527f7200000000000000000000000000000000000000000000000000000000000000602082015250565b60006127f3602183612141565b91506127fe82612797565b604082019050919050565b60006020820190508181036000830152612822816127e6565b9050919050565b7f4552433732313a20617070726f76652063616c6c6572206973206e6f7420746f60008201527f6b656e206f776e6572206f7220617070726f76656420666f7220616c6c000000602082015250565b6000612885603d83612141565b915061289082612829565b604082019050919050565b600060208201905081810360008301526128b481612878565b9050919050565b7f4552433732313a2063616c6c6572206973206e6f7420746f6b656e206f776e6560008201527f72206f7220617070726f76656400000000000000000000000000000000000000602082015250565b6000612917602d83612141565b9150612922826128bb565b604082019050919050565b600060208201905081810360008301526129468161290a565b9050919050565b7f4e6f2062616c616e636520746f20776974686472617700000000000000000000600082015250565b6000612983601683612141565b915061298e8261294d565b602082019050919050565b600060208201905081810360008301526129b281612976565b9050919050565b600081905092915050565b50565b60006129d46000836129b9565b91506129df826129c4565b600082019050919050565b60006129f5826129c7565b9150819050919050565b7f5769746864726177206661696c65640000000000000000000000000000000000600082015250565b6000612a35600f83612141565b9150612a40826129ff565b602082019050919050565b60006020820190508181036000830152612a6481612a28565b9050919050565b7f4552433732313a20696e76616c696420746f6b656e2049440000000000000000600082015250565b6000612aa1601883612141565b9150612aac82612a6b565b602082019050919050565b60006020820190508181036000830152612ad081612a94565b9050919050565b7f4552433732313a2061646472657373207a65726f206973206e6f74206120766160008201527f6c6964206f776e65720000000000000000000000000000000000000000000000602082015250565b6000612b33602983612141565b9150612b3e82612ad7565b604082019050919050565b60006020820190508181036000830152612b6281612b26565b9050919050565b600082905092915050565b60008190508160005260206000209050919050565b60006020601f8301049050919050565b600082821b905092915050565b600060088302612bd67fffffffffffffffffffffffffffffffffffffffffffffffffffffffffffffffff82612b99565b612be08683612b99565b95508019841693508086168417925050509392505050565b6000819050919050565b6000612c1d612c18612c13846121e8565b612bf8565b6121e8565b9050919050565b6000819050919050565b612c3783612c02565b612c4b612c4382612c24565b848454612ba6565b825550505050565b600090565b612c60612c53565b612c6b818484612c2e565b505050565b5b81811015612c8f57612c84600082612c58565b600181019050612c71565b5050565b601f821115612cd457612ca581612b74565b612cae84612b89565b81016020851015612cbd578190505b612cd1612cc985612b89565b830182612c70565b50505b505050565b600082821c905092915050565b6000612cf760001984600802612cd9565b1980831691505092915050565b6000612d108383612ce6565b9150826002028217905092915050565b612d2a8383612b69565b67ffffffffffffffff811115612d4357612d42612549565b5b612d4d8254612766565b612d58828285612c93565b6000601f831160018114612d875760008415612d75578287013590505b612d7f8582612d04565b865550612de7565b601f198416612d9586612b74565b60005b82811015612dbd57848901358255600182019150602085019450602081019050612d98565b86831015612dda5784890135612dd6601f891682612ce6565b8355505b6001600288020188555050505b50505050505050565b7f4d696e74696e67206973206e6f7420656e61626c656400000000000000000000600082015250565b6000612e26601683612141565b9150612e3182612df0565b602082019050919050565b60006020820190508181036000830152612e5581612e19565b9050919050565b7f4e487b7100000000000000000000000000000000000000000000000000000000600052601160045260246000fd5b6000612e96826121e8565b9150612ea1836121e8565b9250828202612eaf816121e8565b91508282048414831517612ec657612ec5612e5c565b5b5092915050565b7f496e636f7272656374206d696e742076616c7565000000000000000000000000600082015250565b6000612f03601483612141565b9150612f0e82612ecd565b602082019050919050565b60006020820190508181036000830152612f3281612ef6565b9050919050565b6000612f44826121e8565b9150612f4f836121e8565b9250828201905080821115612f6757612f66612e5c565b5b92915050565b7f45786365656473206d61782077616c6c6574206c696d69740000000000000000600082015250565b6000612fa3601883612141565b9150612fae82612f6d565b602082019050919050565b60006020820190508181036000830152612fd281612f96565b9050919050565b6000612fe4826121e8565b91507fffffffffffffffffffffffffffffffffffffffffffffffffffffffffffffffff820361301657613015612e5c565b5b600182019050919050565b7f546f6b656e20646f6573206e6f74206578697374210000000000000000000000600082015250565b6000613057601583612141565b915061306282613021565b602082019050919050565b600060208201905081810360008301526130868161304a565b9050919050565b600081905092915050565b600081546130a581612766565b6130af818661308d565b945060018216600081146130ca57600181146130df57613112565b60ff1983168652811515820286019350613112565b6130e885612b74565b60005b8381101561310a578154818901526001820191506020810190506130eb565b838801955050505b50505092915050565b600061312682612136565b613130818561308d565b9350613140818560208601612152565b80840191505092915050565b7f2e6a736f6e000000000000000000000000000000000000000000000000000000600082015250565b600061318260058361308d565b915061318d8261314c565b600582019050919050565b60006131a48285613098565b91506131b0828461311b565b91506131bb82613175565b91508190509392505050565b7f4f776e61626c653a206e6577206f776e657220697320746865207a65726f206160008201527f6464726573730000000000000000000000000000000000000000000000000000602082015250565b6000613223602683612141565b915061322e826131c7565b604082019050919050565b6000602082019050818103600083015261325281613216565b9050919050565b7f4552433732313a207472616e736665722066726f6d20696e636f72726563742060008201527f6f776e6572000000000000000000000000000000000000000000000000000000602082015250565b60006132b5602583612141565b91506132c082613259565b604082019050919050565b600060208201905081810360008301526132e4816132a8565b9050919050565b7f4552433732313a207472616e7366657220746f20746865207a65726f2061646460008201527f7265737300000000000000000000000000000000000000000000000000000000602082015250565b6000613347602483612141565b9150613352826132eb565b604082019050919050565b600060208201905081810360008301526133768161333a565b9050919050565b7f4f776e61626c653a2063616c6c6572206973206e6f7420746865206f776e6572600082015250565b60006133b3602083612141565b91506133be8261337d565b602082019050919050565b600060208201905081810360008301526133e2816133a6565b9050919050565b7f4552433732313a20617070726f766520746f2063616c6c657200000000000000600082015250565b600061341f601983612141565b915061342a826133e9565b602082019050919050565b6000602082019050818103600083015261344e81613412565b9050919050565b7f4552433732313a207472616e7366657220746f206e6f6e20455243373231526560008201527f63656976657220696d706c656d656e7465720000000000000000000000000000602082015250565b60006134b1603283612141565b91506134bc82613455565b604082019050919050565b600060208201905081810360008301526134e0816134a4565b9050919050565b7f4e487b7100000000000000000000000000000000000000000000000000000000600052601260045260246000fd5b600081519050919050565b600082825260208201905092915050565b600061353d82613516565b6135478185613521565b9350613557818560208601612152565b6135608161217c565b840191505092915050565b6000608082019050613580600083018761227d565b61358d602083018661227d565b61359a60408301856123a2565b81810360608301526135ac8184613532565b905095945050505050565b6000815190506135c6816120dd565b92915050565b6000602082840312156135e2576135e16120a7565b5b60006135f0848285016135b7565b91505092915050565b7f4552433732313a206d696e7420746f20746865207a65726f2061646472657373600082015250565b600061362f602083612141565b915061363a826135f9565b602082019050919050565b6000602082019050818103600083015261365e81613622565b9050919050565b7f4552433732313a20746f6b656e20616c7265616479206d696e74656400000000600082015250565b600061369b601c83612141565b91506136a682613665565b602082019050919050565b600060208201905081810360008301526136ca8161368e565b905091905056fea264697066735822122094be7979bf5cfd745b104ba28bac9a618cdc7cdbb20bcde21a8155ac00c8596c64736f6c63430008130033",
    "linkReferences": {},
    "deployedLinkReferences": {}
}